:100000000C94EF060C940C070C940C070C940C0742
:100010000C947D080C940C070C940C070C940C07A2
:100020000C940C070C940C070C940C070C94CB0943
:100030000C94D6090C940C070C940C070C940C0728
:100040000C94E6070C940C070C94520A0C940C07C1
:100050000C940C070C940C070C940C070C940C07D4
:100060000C940C070C940C07B90BDF0BE10BDA0BAB
:10007000EE0BB30BB60BA811B011CA11BA11CA110D
:10008000CA11CA11CA11CA11CA11CA11CA11CA1198
:10009000CA11CA11CA11CA11CA11CA11CA11CA1188
:1000A000CA11CA11CA11CA11CA11CA11CA11CA1178
:1000B000CA11A211CA11CA11CA11CA11CA11CA1190
:1000C000CA11CA119611CA11CA11CA11CA11CA118C
:1000D000CA11CA11CA11CA11CA11C011C511000032
:1000E000250028002B000000240027002A00FFD054
:1000F000FFE0FFCFFF64FFD1FF32380C060201FFA3
:1001000064FFD0FFFE00090F00FD0A01E803D620BE
:100110007FFD0CFD0BFD00000009000C020A0A091E
:100120000300C0C0C0C0C0C0C0C000C005030309F8
:100130000207D8D8D80708080901016C6CFE6C6C5E
:10014000FE6C6C070B0B0901FF107CD6D0F07C1EF7
:1001500016D67C10080A0A09000043E6E64C181877
:10016000326767C2080A0A090000386C6C78307977
:10017000CFC6CE7B020404090306C0C0C0C0050C74
:100180000C0902FF18306060C0C0C0C06060301849
:10019000050C0C0902FFC0603030181818183030F8
:1001A00060C00705050901026C38FE386C080707B6
:1001B000090001181818FF1818180305050903FD90
:1001C000E0E06060C0080101090004FF04030309C6
:1001D00002FF60F060080A0A0900000306060C1816
:1001E00018306060C0080A0A090000183C66C3C3E2
:1001F000C3C3663C18060A0A0901003070F03030AB
:1002000030303030FC080A0A0900003C66C303069F
:100210000C183060FF080A0A0900007CC603061C9F
:10022000060303C67C080A0A090000060E1E36668D
:10023000C6FF060606080A0A090000FEC0C0DCE682
:100240000303C3663C080A0A0900003C66C2C0DC1E
:10025000E6C3C3663C080A0A090000FF0303060C54
:100260000C18181818080A0A0900003C66C3663CF6
:1002700066C3C3663C080A0A0900003C66C3C3673C
:100280003B0343663C0408080902FF60F06000007D
:1002900060F060040A0A0902FD60F06000007070FE
:1002A000303060060A0A0901000C183060C0C060D6
:1002B00030180C080404090002FF0000FF060A0AB7
:1002C000090100C06030180C0C183060C0070A0A21
:1002D0000901007CC6C6060C1830003030080A0A36
:1002E0000900003C66C3CFDBDBCEC0633E080A0AD0
:1002F000090000183C66C3C3C3FFC3C3C3080A0A8E
:10030000090000FCC6C3C6FCC6C3C3C6FC080A0A73
:100310000900003E63C1C0C0C0C0C1633E080A0AF4
:10032000090000FCC6C3C3C3C3C3C3C6FC070A0A93
:10033000090100FEC0C0C0FCC0C0C0C0FE080A0A5F
:10034000090000FFC0C0C0FCC0C0C0C0C0080A0A8D
:100350000900003E63C0C0C0C7C3C3633E080A0AA9
:10036000090000C3C3C3C3FFC3C3C3C3C3060A0A90
:10037000090100FC3030303030303030FC060A0AE1
:100380000901003C0C0C0C0C0C0C8CD870080A0AEF
:10039000090000C3C6CCD8F0F0D8CCC6C3070A0AFF
:1003A000090100C0C0C0C0C0C0C0C0C0FE080A0A69
:1003B000090000C3E7FFDBDBDBC3C3C3C3080A0AD2
:1003C000090000C3E3F3F3DBDBCFC7C7C3080A0AA6
:1003D0000900003C66C3C3C3C3C3C3663C080A0A22
:1003E000090000FEC3C3C3FEC0C0C0C0C0080A0AE3
:1003F0000900003C66C3C3C3C3DBCF663D080A0ADD
:10040000090000FEC3C3C3FEF8CCC6C3C3080A0A72
:100410000900007EC3C0C07E030303C37E080A0A2E
:10042000090000FF181818181818181818080A0AD0
:10043000090000C3C3C3C3C3C3C3C3663C080A0ADD
:10044000090000C3C3C36666663C3C1818080A0A64
:10045000090000C3C3C3C3DBDBDBFFE7C3080A0A31
:10046000090000C3C3663C18183C66C3C3080A0AE7
:10047000090000C3C3663C181818181818070A0AA0
:10048000090100FE06060C183060C0C0FE050C0C09
:100490000902FFF8C0C0C0C0C0C0C0C0C0C0F808DA
:1004A0000A0A090000C060603018180C060603052F
:1004B0000C0C0902FFF81818181818181818181832
:1004C000F80604040901063078CC8408010109000B
:1004D000FFFF040303090208C06030080707090092
:1004E000003E63037FC3C77B080A0A090000C0C03F
:1004F000C0DCE6C3C3C3E6DC0807070900003E63AF
:10050000C0C0C0633E080A0A0900000303033B673A
:10051000C3C3C3673B0807070900003C66C3FFC0AD
:10052000633E080A0A0900001E33333030FC3030C5
:100530003030080A0A0900FD7DC7C6C67CC07EC3EC
:10054000C37E080A0A090000C0C0C0DCE6C3C3C3FA
:10055000C3C3060A0A090100303000703030303061
:1005600030FC070D0D0901FD0606001E06060606F5
:1005700006C6C6C67C070A0A090100C0C0C0CCD89E
:10058000F0F0D8CCC6060A0A0901007030303030CD
:1005900030303030FC080707090000B6DBDBDBDB5E
:1005A000DBDB080707090000DCE6C3C3C3C3C308DD
:1005B00007070900003C66C3C3C3663C080A0A0972
:1005C00000FDDCE6C3C3C3E6DCC0C0C0080A0A09FC
:1005D00000FD3B67C3C3C3673B0303030807070969
:1005E0000000DE7360606060600807070900007E3D
:1005F000C3C07E03C37E0809090900003030FC3007
:10060000303030331E080707090000C3C3C3C3C31B
:10061000673B080707090000C3C366663C3C18082F
:100620000707090000C3C3DBDBDBFF660807070918
:100630000000C3663C183C66C3080A0A0900FDC3F3
:10064000C3C3C3C3673B03C67C060707090100FC9D
:100650000C183060C0FC050C0C0902FF38606060AB
:1006600060C0C06060606038020A0A090300C0C050
:10067000C0C0C0C0C0C0C0C0050C0C0902FFE03043
:10068000303030181830303030E0080303090007EC
:1006900073DBCEFF01060A00FE070136026820FF69
:1006A000FE08FE07FE0A00602217678080808080B7
:1006B0000080163363A0A0A00257675050F850F88E
:1006C00050500257672070A070287020025767486A
:1006D000A8502050A89002576740A0A040A890685A
:1006E00026136380808012376720408080804020FE
:1006F000123767804020202040800355658850F8DD
:1007000050880355652020F8202011336360408015
:10071000055161F811336340E04002576708081043
:1007200020408080025767205088888850200257D8
:10073000672060A0202020F80257677088083040AA
:1007400080F8025767F80810300888700257671061
:10075000305090F81010025767F880B0C8088870C1
:10076000025767304080B0C88870025767F8081099
:100770001020404002576770888870888870025740
:10078000677088986808106011376740E040004043
:10079000E04011376740E04000604080124767103A
:1007A000204080402010045363F800F8124767800F
:1007B00040201020408002576770881020200020C1
:1007C000025767708898A8B08070025767205088D9
:1007D00088F88888025767F04848704848F0025700
:1007E0006770888080808870025767F04848484862
:1007F00048F0025767F88080F08080F8025767F869
:100800008080F08080800257677088808098887030
:10081000025767888888F8888888123767E04040E0
:10082000404040E0025767381010101090600257A7
:10083000678890A0C0A090880257678080808080E1
:1008400080F80257678888D8A88888880257678800
:1008500088C8A898888802576770888888888870B0
:10086000025767F08888F080808001586870888817
:100870008888A87008025767F08888F0A0908802DE
:10088000576770888070088870025767F8202020AA
:1008900020202002576788888888888870025767D8
:1008A00088888850505020025767888888A8A8D820
:1008B0008802576788885020508888025767888840
:1008C0005020202020025767F80810204080F8129E
:1008D0003767E08080808080E0025767808040201A
:1008E000100808123767E02020202020E00653631C
:1008F000205088015161F8282262804002556570BD
:10090000087888780257678080B0C888C8B00255D8
:1009100065708880887002576708086898889868AA
:100920000255657088F88070025767304840F04083
:100930004040005767788888780888700257678039
:1009400080B0C88888881237674000C0404040E0C7
:1009500010496910003010101090906002576780A5
:10096000808890E09088123767C04040404040E067
:10097000025565D0A8A8A888025565B0C88888889F
:100980000255657088888870005767B0C888C8B0FD
:10099000808000576768988898680808025565B095
:1009A000C880808002556570807008F002576740EB
:1009B00040F0404048300255658888889868025564
:1009C0006588885050200255658888A8A85002552F
:1009D0006588502050880057678888986808887014
:1009E000025565F8102040F8124767304020C020BB
:1009F000403022176780808080808080124767C0E7
:100A00002040304020C006536348A890FFFFFFFFFE
:100A1000FFFFFFFFFFFFFFFFFFFFFFFFFFFFFFFFE6
:100A2000FFFFFFFFFFFFFFFFFFFFFFFFFF0A006069
:100A3000221767800080808080800157672078A01F
:100A4000A0A07820025767304840E04048B00255E7
:100A500065887050708801586888885020F8202078
:100A60002022176780808000808080015868708015
:100A7000E09048380870193161A00257677088A863
:100A8000C8A888701346667090B05000F002656583
:100A90002448904824144262F010154161F0025736
:100AA000677088E8C8C88870095161F816336340D8
:100AB000A0400256662020F82020F8154565609079
:100AC0002040F0154565E0106010E028226240806B
:100AD000015666888888C8B08002576778E8E86859
:100AE0002828282511618020226240801535654024
:100AF000C04040E01346666090906000F00265657B
:100B0000904824489001696940C04040E40C143C7E
:100B10000401696940C04040E81404081C01596997
:100B2000C0204020C81828780802576720002020DD
:100B30004088700258684020708888F88888025879
:100B4000681020708888F88888025868205070885B
:100B500088F8888802586848B0708888F8888802C1
:100B600058685000708888F888880258682050704B
:100B70008888F888880267673C50909CF0909C00B9
:100B8000596970888080808870204002586840F8D9
:100B90008080F08080F802586810F88080F08080B3
:100BA000F802586820F88080F08080F80258685079
:100BB000F88080F08080F81238688040E040404043
:100BC00040E01238682040E040404040E012386881
:100BD00040A0E040404040E0123868A000E04040C3
:100BE0004040E0025767F04848E84848F00258683B
:100BF000285088C8A898888802586840207088883B
:100C00008888700258681020708888888870025818
:100C100068205070888888887002586828507088CA
:100C200088888870025868500070888888887002A8
:100C300055658850205088025767709898A8C8C892
:100C40007002586840208888888888700258681028
:100C50002088888888887002586820500088888892
:100C600088700258685000888888888870025868A0
:100C7000102088885020202002576780F088F0805C
:100C80008080025767708890A09088B002586840B2
:100C90002000700878887802586810200070087862
:100CA0008878025868205000700878887802586860
:100CB00028500070087888780257675000700878CC
:100CC0008878025868205020700878887802656516
:100CD00078147C907C005767708880887020400270
:100CE00058684020007088F8807002586810200012
:100CF0007088F880700258682050007088F8807002
:100D000002576750007088F8807012386880400081
:100D1000C0404040E0123868408000C0404040E0A1
:100D200012386840A000C0404040E0123767A00081
:100D3000C0404040E0025767C03070888888700229
:100D40005868285000B0C888888802586840200039
:100D500070888888700258681020007088888870B1
:100D6000025868205000708888887002586828509F
:100D70000070888888700257675000708888887073
:100D80000355652000F800200255657898A8C8F042
:100D900002586840200088888898680258681020A7
:100DA0000088888898680258682050008888889849
:100DB0006802576750008888889868005969102031
:100DC0008888986808887000586880F0888888F05B
:100DD00080800059695000888898680888701124BC
:100DE0001FBECFEFD8E0DEBFCDBF11E0A0E0B1E085
:100DF000E2EAF8E202C005900D92AC34B107D9F7EF
:100E000022E0ACE4B1E001C01D92AB33B207E1F7E0
:100E10000E94000A0C944F140C9400009B01215076
:100E200031091216130684F4FC01E60FF71FDC01EA
:100E300080E090E04C9152915D9340830196215067
:100E4000310982179307B4F3089581309105A1F415
:100E500080914C0190914D0101968E3091052CF4BA
:100E600090934D0180934C0108958DE090E0909314
:100E70004D0180934C010895892B81F480914C01A0
:100E800090914D0101972AF090934D0180934C0170
:100E9000089510924D0110924C01089510924D0149
:100EA00010924C010895CF92DF92EF92FF920F9330
:100EB0001F93CF93DF936B018A01009799F0EB01A9
:100EC000E0E0F0E00F2EFAE0EF2EF12CF02D31965D
:100ED000B7010E94E313805D8993862F972F0097B7
:100EE000B1F702C0E0E0F0E0E017F1075CF4EC0DD0
:100EF000FD1D9601200F311F80E38193E217F30758
:100F0000E1F701C08F01B801C6010E940E07E6019A
:100F1000C00FD11F1882C801DF91CF911F910F918F
:100F2000FF90EF90DF90CF9008954F925F926F9275
:100F30007F92AF92BF92CF92DF92EF92FF920F9388
:100F40001F93CF93DF932B013C018A0159010E942B
:100F5000B2126B017C0140E050E0B801C6010E9472
:100F60005307EC01AB2819F1F801E80FF91F8EE2E5
:100F70008083B601DD0C880B990B0E94EA129B015D
:100F8000AC01C301B2010E94D3112196C00FD11F41
:100F900020E030E04AE754E40E9476130E94B21247
:100FA000DC01CB0143E050E0BE010E945307DF911A
:100FB000CF911F910F91FF90EF90DF90CF90BF9056
:100FC000AF907F906F905F904F9008951F920F9217
:100FD0000FB60F9211242F933F934F935F936F930C
:100FE0007F938F939F93AF93BF93EF93FF938091E2
:100FF0006601909167010196909367018093660165
:10100000853F910509F068C095B180E2892785B9CF
:1010100010926701109266018091640190916501C0
:1010200001969093650180936401CC976CF0809158
:101030006201909163010196909363018093620134
:1010400010926501109264014AE062E372E08091BF
:101050006401909165010E941A144AE06EE272E008
:1010600080916201909163010E941A1420ED3FE08B
:1010700049EC50E460915201709153018091540108
:10108000909155010E94761326E436EB43E75EE328
:101090000E94761326E636E646E650E40E94761372
:1010A00060932A0270932B0280932C0290932D025E
:1010B00021E030E046E352E00E94950760914E0146
:1010C00070914F01809150019091510120E030E0EA
:1010D00042E252E00E949507FF91EF91BF91AF91DC
:1010E0009F918F917F916F915F914F913F912F9140
:1010F0000F900FBE0F901F9018951F920F920FB672
:101100000F9211248F929F92AF92BF92CF92DF9253
:10111000EF92FF922F933F934F935F936F937F9341
:101120008F939F93AF93BF93EF93FF93309B6CC0CC
:10113000C0905A01D0905B01E0905C01F0905D019D
:10114000C0925E01D0925F01E0926001F092610175
:101150006091660170916701072E000C880B990B56
:101160000E94EA1225E831EB45E85BE30E94761322
:101170004B015C016091640170916501072E000CC8
:10118000880B990B0E94EA129B01AC01C501B401C6
:101190000E94D41160935A0170935B0180935C01AB
:1011A00090935D01A70196010E94D3119B01AC01B0
:1011B00060935601709357018093580190935901A1
:1011C00060E070E080E89FE30E944012609352016B
:1011D0007093530180935401909355012BE239E6AB
:1011E0004FEB5FE360914E0170914F018091500190
:1011F000909151010E94D41160934E0170934F0160
:101200008093500190935101809168019091690100
:10121000892B69F4329B05C081E090E00E9425078C
:1012200006C0319B0EC080E090E00E9425078091AF
:10123000680190916901019721F482E090E00E9499
:101240002507FF91EF91BF91AF919F918F917F9172
:101250006F915F914F913F912F91FF90EF90DF90B1
:10126000CF90BF90AF909F908F900F900FBE0F9038
:101270001F901895CF92EF920F93CF9363E081E088
:101280000E94430C082F64E081E00E94430CC82FA9
:1012900065E081E00E94430CCC24CA94EE24EA94D9
:1012A0002C2F482F60E071E08BEE91E00E945310EC
:1012B000CF910F91EF90CF900895E1E6F0E080E8B4
:1012C00080831082089514B884B1866084B989E05F
:1012D00080938100109285001092840086E08093B4
:1012E0006F008FEF9FEF90938900809388008FE8C5
:1012F00092EC90938B0080938A00089564E976E0E5
:101300008BEE91E00E94460F2EE031E047E060E076
:101310008BEE91E00E94BA0E22E231E043E260E0FF
:101320008BEE91E00E94BA0E27E331E04CE360E0DF
:101330008BEE91E00E94BA0E2EE232E047E068E2C6
:101340008BEE91E00E94BA0E29E431E047E061E3C0
:101350008BEE91E00E94BA0E22E332E047E067E3B1
:101360008BEE91E00E94BA0E22E232E04CE368E29A
:101370008BEE91E00E94BA0E65E071E08BEE91E099
:101380000E94460F26E332E043E263E28BEE91E0F7
:101390000E94BA0E08951F920F920FB60F92112459
:1013A000299A0F900FBE0F901F9018951F920F92C1
:1013B0000FB60F9211242F933F934F935F938F9308
:1013C0009F93299840914C0150914D012FE135E0B8
:1013D000429FC001439F900D529F900D1124885B46
:1013E0009E4990938B0080938A009F918F915F918B
:1013F0004F913F912F910F900FBE0F901F90189516
:101400000E945D090E94390A0E943A090E946309FC
:10141000F89416BC84E085BD81E080936E008FEF68
:101420008AB91BB817B818B8E8E6F0E08081826086
:101430008083ECE6F0E080818F6080837894C1E067
:10144000D0E08BEE91E00E9476100E947E09339BE3
:1014500005C0D0936901C093680104C0109269016E
:10146000109268018BEE91E00E947C108111EDCF0B
:10147000E8CFE2ECF0E08081866080838081808329
:1014800080818083808180831092C5008FEC80935F
:10149000C400E1ECF0E08081806880838081886115
:1014A000808308951F920F920FB60F9211248F938D
:1014B0008091C60080933A0281E080936A018F9107
:1014C0000F900FBE0F901F9018950F93FC010150C5
:1014D000040F84A996A9941738F0081768F481E0DE
:1014E000041740F080E006C00817D0F081E0041730
:1014F00008F080E08823C9F02150260F83A995A920
:10150000961738F0281770F481E0261770F080E005
:101510000CC0281748F081E0261738F080E005C09D
:1015200080E003C081E001C080E00F910895DB01FD
:101530001496ED91FC91159720E030E061E009955B
:101540000895DB011496ED91FC91159720E030E0B1
:1015500063E009950895DB011496ED91FC911597D0
:1015600020E030E040E064E009950895DB01149646
:10157000ED91FC91159720E030E041E064E00995A1
:101580000895DB011496ED91FC91159720E030E071
:1015900062E009950895DB011496ED91FC91159791
:1015A00020E030E065E009950895DB011496ED91A7
:1015B000FC91159766E009950895AF92BF92CF927E
:1015C000DF92EF92FF920F931F93CF93DF936C0103
:1015D0007B018A01D0E0B12CAA24A394F801C49124
:1015E000D1110BC0CF3F09F44AC04C2FB701C6013F
:1015F0000E94CB0A811148C04BC0CF3F51F44FEF3E
:10160000B701C6010E94CB0A882309F441C0DB2D33
:101610003BC0CE3FE1F1C03FA0F5C03E40F04C2FB3
:101620004F70B701C6010E94C10ADB2D2DC0C03D1D
:1016300040F04C2F4F70B701C6010E94A10ADB2D6C
:1016400023C0C03CA0F0B701C6010E94AB0AC295FE
:10165000C07FCE5FD0E0CE010E94A40CB701C601CE
:101660000E94B60ACE010E94A40CDB2D0DC0CC2333
:1016700054F08C2F90E00E94A40CDB2D05C0DA2DD5
:1016800003C0DB2D01C0DB2D0F5F1F4FA7CF81E013
:10169000DF91CF911F910F91FF90EF90DF90CF904E
:1016A000BF90AF9008950F931F93CF93DF938C015A
:1016B000D62FC8E04D2F407865E0C8010E949A0CF3
:1016C000DD0F41E064E0C8010E949A0C0E94AE0C5C
:1016D00040E064E0C8010E949A0C0E94AE0CC15028
:1016E00049F7DF91CF911F910F9108950F931F93A9
:1016F000CF938C01C42F611104C068EF0E94530B7B
:1017000005C0613019F46AEF0E94530B6C2F607FA3
:10171000C8010E94530B6C2F6295607FC8010E9424
:10172000530B0E94B30C0E94B30C0E94B30C0E9496
:10173000B30CCF911F910F910895CF92DF92EF924A
:10174000FF920F931F93CF93DF93EC018901862FB4
:1017500090E0FC013197E730F10508F073C0EC5CD4
:10176000FF4F0C94F713411140C06CC0411153C09E
:1017700069C064E0CE010E94910C65E0CE010E9438
:10178000910C62E0CE010E94910C60E0CE010E94BB
:10179000910C40E064E0CE010E949A0C40E065E0CC
:1017A000CE010E949A0C40E062E0CE010E949A0CA9
:1017B0001EA248C060E0CE010E949A0C43C04EA316
:1017C00041C0411105C062E0CE010E949A0C3AC0AE
:1017D00041E062E0CE010E949A0C34C06EA1CE01BD
:1017E0000E94760B82E08EA32DC06901415050E02B
:1017F0004F5F5F4F040F151F6894FF24F1F8F60147
:1018000041916F016EA1CE010E94760BFEA20C15D4
:101810001D05A9F717C04150E42EF12CFFEFEF1A78
:10182000FF0AE20EF31E6894DD24D1F8F80144911A
:101830006EA1CE010E94760BDEA20F5F1F4FE01655
:10184000F106A1F781E0DF91CF911F910F91FF90F9
:10185000EF90DF90CF900895CF93DF9300D0CDB776
:10186000DEB770E0660F771F680F791F42E050E027
:10187000CE0101960E94111489819A810F900F90D8
:10188000DF91CF910895880F880F880F860F0895F4
:10189000CF93C82F682F66956695669586EE90E083
:1018A0000E942C0CFC014081C77021E030E002C096
:1018B000220F331FCA95E2F7242B2083CF9108957E
:1018C000CF93DF93C82FD62F682F669566956695C0
:1018D0008EED90E00E942C0CD11111C05FB7F894EE
:1018E000FC014081C77021E030E002C0220F331FAD
:1018F000CA95E2F72095242320835FBF0FC04FB71E
:10190000F894FC015081C77021E030E002C0220F42
:10191000331FCA95E2F7252B20834FBFDF91CF916C
:101920000895860F911DFC0183A18F3F11F00E9445
:10193000480C0895860F911DFC0183A18F3F19F07B
:10194000642F0E94600C0895009739F02EE93FE063
:10195000F9013197F1F70197D9F7089584E090E004
:101960000197F1F7089588E290E00197F1F7089563
:101970009F92AF92BF92CF92DF92EF92FF920F931E
:101980001F93CF93DF938C01EB01E42E59018AE082
:10199000481721F0E5E14E1761F059C043E0C80156
:1019A0000E94970A4EEE50E0BE01C8010E94DD0A77
:1019B0004EC0CA80DB8040E0C8010E94C10A41E0FD
:1019C000BE01C8010E94A10AF601F280C680D7803C
:1019D0006894992493F89F0C40E0BE01C8010E94CE
:1019E000C10A4EE3BE01C8010E94CB0AFFE1FF1508
:1019F00060F04F2D4068BE01C8010E94CB0A40E84C
:101A0000BE01C8010E94CB0A0CC040EE4F0D4068D9
:101A1000BE01C8010E94CB0A48E8BE01C8010E946D
:101A2000CB0A41E0BE01C8010E94C10A960140E113
:101A3000BE01C8010E94D50A80E1C80ED11CF394F2
:101A40009F10CACF40E0BE01C8010E94A10A9501C3
:101A50004E2DBE01C8010E948411DF91CF911F91CC
:101A60000F91FF90EF90DF90CF90BF90AF909F903D
:101A70000895FC01E60FF11D849190E0982F8827CE
:101A80003196E4918E0F911D0895FC018491089583
:101A90000E94450D882321F0823011F083E00895E3
:101AA00086E0089580E0089566E00E94390D08956B
:101AB00068E00E94390D08950A96FC01849108950A
:101AC0000B96FC0184910895AF92BF92CF92DF9262
:101AD000EF92FF920F931F93CF93DF937C01B62E6B
:101AE000DC011496CD91DC911597CE010E94450D35
:101AF000182FF701848195810E94480DD82E11304E
:101B000029F40F2EFFE0AF2EF02D02C0AA24AA94D4
:101B1000D70114968D919C9115970E945C0D182FFA
:101B2000F701848195810E94600D082FD7011496DA
:101B30008D919C9115970E94580DB0E6BB1530F41D
:101B4000009721F0C80FD91F11E60FC0F70184815B
:101B500095810E94540DF0E4FB1530F4009721F0BC
:101B6000C80FD91F11E401C061960B1590F4D7017D
:101B700050961C92509753961C92539754961C92D1
:101B8000549751961C92519752961C9280E090E087
:101B900076C0011708F46BC02D2D30E06E01FE01F8
:101BA00094919F3F11F421965EC01B1153C0D70141
:101BB00014968D919C9115970E94450D882311F0E4
:101BC000823001F5F601C490D7015396CC92539719
:101BD000FE013196E4915496EC935497FE013396AE
:101BE000E4915096EC935097FE013496E49151960F
:101BF000EC935197FE013596E4915296EC938C2F1D
:101C00009D2F3DC0FE018491982F9F709250D70167
:101C100052969C935297C82EC694C694C694C69466
:101C20005196CC925197FE013196E4918E2F8F7090
:101C300054968C935497E295EF705396EC93539788
:101C4000FE013296E491E295EF705096EC938C2F62
:101C50009D2F15C0FE013296E491EA21C9018E0F35
:101C6000911DC80FD91F101711F01F5F97CFF701F3
:101C7000108A138A148A118A128A80E090E0DF9118
:101C8000CF911F910F91FF90EF90DF90CF90BF9079
:101C9000AF9008956F927F928F929F92AF92BF9272
:101CA000CF92DF92EF92FF920F931F93CF93DF9328
:101CB0005C01162F742E622F0E94640D6C01892B1B
:101CC00009F448C0F501848195810E94480D982E41
:101CD000F501D389C4896188610E8289781AF72C4D
:101CE000FC1A0C2F2D2F4F2D662DC5010E94650A61
:101CF000811103C0F50180892EC0D95FED2EE694D5
:101D0000E694E694CC2319F1E601C90DD11D88248F
:101D10008A948E0C912CFFEF8F1A9F0A11C0FE013E
:101D2000049120E04F2D612FC5010E948C10219657
:101D3000185FCC15DD0599F7E601F394F71439F037
:101D4000EE20D9F36E01C80CD91C162DE8CFF50191
:101D5000808901C080E0DF91CF911F910F91FF90AA
:101D6000EF90DF90CF90BF90AF909F908F907F903B
:101D70006F900895CF92DF92FF920F931F93CF93AE
:101D8000DF936C01C62FF42E8901DC015596ED918D
:101D9000FC9156970995F80EF8012081222381F0D5
:101DA0000F5F1F4FD0E04F2D6C2FC6010E944A0ECF
:101DB000C80FD80FD8012D918D012111F4CF01C08A
:101DC000D0E08D2FDF91CF911F910F91FF90DF9089
:101DD000CF900895DC0114968D919C9115970097F2
:101DE00009F44DC057962C91579721110DC0FC0155
:101DF0003596E4915896EC935897FC013C96E49103
:101E00005996EC9359971BC0213069F4FC013F9619
:101E1000E4915896EC935897FC017096E49159968A
:101E2000EC9359970CC0FC013D96E4915896EC93C5
:101E30005897FC013E96E4915996EC935997589621
:101E40008C915897082E000C990B59962C91599704
:101E5000821B910927FD93955A962C915A9720340D
:101E600061F0829FC00111240024880F991F001C7B
:101E7000880F991F001C892F902D5B968C930895D5
:101E800022E53DE0FC01368B258B0895CF93DF934F
:101E9000FC01248135812617370749F0EC01758351
:101EA00064830E94EA0E82E59DE09E8B8D8BDF911C
:101EB000CF9108951F93CF93DF93EC011D821C8275
:101EC0001F821E82198681E0888782E28A871F86A8
:101ED0001E86FE01B3969E012F5C3F4F8FEF8193CC
:101EE000E217F307E1F711E018A3CE010E94400FBB
:101EF0001F8B188E198E80E48A8F1B8E82ED91E1E4
:101F00009AAB89ABDF91CF911F910895DB01ED91E1
:101F1000FC91099508950F931F93CF93DF93EC01E4
:101F20008B01E9A9FAA982E0099520E030E04AE0B6
:101F3000B801CE010E94860F182FE9A9FAA983E003
:101F40000995E9A9FAA980E00995812FDF91CF9140
:101F50001F910F9108950F931F93CF93DF93EC017F
:101F60008B01E9A9FAA982E00995E9A9FAA981E01A
:101F7000099520E030E044E1B801CE010E94860FCF
:101F80009E012D5C3F4F47E1B801CE010E94860FB4
:101F9000E9A9FAA980E00995DF91CF911F910F91EE
:101FA0000895EF92FF921F93CF93DF93EC017B0193
:101FB000E9A9FAA982E00995E9A9FAA981E00995B8
:101FC00020E030E045E1B701CE010E94860F182FD6
:101FD000882341F09E012D5C3F4F47E1B701CE01C0
:101FE0000E94860FE9A9FAA980E00995812FDF9167
:101FF000CF911F91FF90EF900895CF93DF931F92A1
:10200000CDB7DEB79E012F5F3F4F46E40E94860F9B
:1020100089810F90DF91CF910895CF93DF931F9225
:10202000CDB7DEB79E012F5F3F4F47E40E94860F7A
:1020300089810F90DF91CF91089520E030E048E44E
:102040000E94860F0895CF93DF93EC016A817B8114
:102050000E94FD0F88836A817B81CE010E940D1052
:1020600089836A817B81CE010E941D108B879E012E
:102070002D5C3F4F6A817B8147E1CE010E94860F34
:10208000DF91CF910895CF93DF93EC016A817B813B
:102090000E948B0F882321F0CE010E94231081E043
:1020A000DF91CF910895AF92BF92CF92EF92FF92BE
:1020B0000F931F93CF93DF93EC015B01F42E122F4C
:1020C0000E945A0FBB82AA82FFA218A70DA3ECA2FE
:1020D000CBA2CE010E944310DF91CF911F910F91AF
:1020E000FF90EF90CF90BF90AF900895FC01628178
:1020F00073810E94AB0F0895CF93DF93EC01EE85BF
:10210000FF85309709F009956A817B81CE010E9495
:10211000D10FDF91CF9108950F93FC0182819381BC
:10212000648F458F278F068F9F01245E3F4F4BE3BF
:10213000BC01CF010E94860F0F910895FC0112820D
:1021400080818150838314820895FC0120818281E3
:10215000820F82839181891760F484818F5F8483E9
:102160008381820F891710F08FEF890F838381E0BD
:10217000089580E00895DC011696ED91FC91179783
:1021800015968C919F01280F311DC9011192E817F6
:10219000F907E1F7089531E0FC012381261708F4DF
:1021A00030E021E0FC018281481708F420E091E052
:1021B000461708F090E0892F832B2823832F89234B
:1021C000822B0895DC01FB01108212968C911297EC
:1021D000818315968C9115978150828313968C91EB
:1021E00083830895FB0131812381213019F023304D
:1021F00021F006C048E0430F04C0432F385001C00F
:10220000432F632F0E94CB1008950F931F93CF93FA
:10221000DF93EC010E811F819D8196959695969591
:10222000862F8770A0E8B0E002C0B595A7958A9583
:10223000E2F78A81481B499F402D112466956695D7
:102240006695E62FF0E0E40FF11DE00FF11F222369
:1022500021F08081A82BA08304C0A0958081A823B1
:10226000A083DF91CF911F910F910895FB014181D0
:10227000FC012281421770F02381241758F0FB01E2
:102280003081FC012581321728F4FB012481632F62
:102290000E9405110895DF92EF92FF920F931F9312
:1022A000CF93DF937C01EB011A818B81813049F060
:1022B00028F0823051F0833059F00EC0D12C01E06B
:1022C0000DC0DD24D39400E009C0D12C0FEF06C06F
:1022D000DD24DA9400E002C0D12C00E0112324F4C4
:1022E000BE01C7010E9436118881800F88838981D1
:1022F0008D0D8983110F91F7DF91CF911F910F9170
:10230000FF90EF90DF9008950F931F93CF93DF938B
:10231000FB01C281D38150E0FA017497E433F105E7
:10232000C8F58901E55CFF4F0C94F713B901CE01A4
:102330000E94F210882381F1B801CE010E944B1156
:1023400081E02BC0B901CE010E94361181E025C089
:10235000CE010E94BB10CE010E949E1081E01DC0E4
:10236000CE010E94A5108823C1F0CE010E94BB10AF
:1023700081E013C0B901CE010E94E21081E00DC0DE
:102380008D81F901808381E008C08981F901808312
:1023900081E003C081E001C081E0DF91CF911F9116
:1023A0000F91089508955058BB27AA270E94EB115A
:1023B0000C943C130E942E1338F00E94351320F029
:1023C00039F49F3F19F426F40C942B130EF4E09586
:1023D000E7FB0C942513E92F0E944D1358F3BA170D
:1023E000620773078407950720F079F4A6F50C942B
:1023F0006F130EF4E0950B2EBA2FA02D0B01B9012F
:1024000090010C01CA01A0011124FF27591B99F06A
:10241000593F50F4503E68F11A16F040A22F232F76
:10242000342F4427585FF3CF469537952795A795C6
:10243000F0405395C9F77EF41F16BA0B620B730B6D
:10244000840BBAF09150A1F0FF0FBB1F661F771FDE
:10245000881FC2F70EC0BA0F621F731F841F48F493
:10246000879577956795B795F7959E3F08F0B0CF1C
:102470009395880F08F09927EE0F97958795089503
:102480000E9454120C943C130E94351358F00E9481
:102490002E1340F029F45F3F29F00C9425135111BD
:1024A0000C9470130C942B130E944D1368F3992312
:1024B000B1F3552391F3951B550BBB27AA27621740
:1024C0007307840738F09F5F5F4F220F331F441F4D
:1024D000AA1FA9F335D00E2E3AF0E0E832D0915081
:1024E0005040E695001CCAF72BD0FE2F29D0660F6E
:1024F000771F881FBB1F261737074807AB07B0E8B1
:1025000009F0BB0B802DBF01FF2793585F4F3AF0B6
:102510009E3F510578F00C9425130C9470135F3F87
:10252000E4F3983ED4F3869577956795B795F7953C
:102530009F5FC9F7880F911D9695879597F9089524
:10254000E1E0660F771F881FBB1F621773078407C0
:10255000BA0720F0621B730B840BBA0BEE1F88F7CF
:10256000E09508950E94B9126894B1110C9470130B
:1025700008950E94551388F09F5798F0B92F992716
:10258000B751B0F0E1F0660F771F881F991F1AF05E
:10259000BA95C9F714C0B13091F00E946F13B1E041
:1025A00008950C946F13672F782F8827B85F39F040
:1025B000B93FCCF3869577956795B395D9F73EF4F7
:1025C00090958095709561957F4F8F4F9F4F08959F
:1025D000E89409C097FB3EF49095809570956195BD
:1025E0007F4F8F4F9F4F9923A9F0F92F96E9BB2773
:1025F0009395F695879577956795B795F111F8CFEF
:10260000FAF4BB0F11F460FF1BC06F5F7F4F8F4F59
:102610009F4F16C0882311F096E911C0772321F04F
:102620009EE8872F762F05C0662371F096E8862FE7
:1026300070E060E02AF09A95660F771F881FDAF73E
:10264000880F9695879597F9089597F99F6780E881
:1026500070E060E008959FEF80EC089500240A94F4
:102660001616170618060906089500240A9412166D
:102670001306140605060895092E0394000C11F4A0
:10268000882352F0BB0F40F4BF2B11F460FF04C04D
:102690006F5F7F4F8F4F9F4F089557FD9058440FA6
:1026A000551F59F05F3F71F04795880F97FB991FB1
:1026B00061F09F3F79F0879508951216130614066E
:1026C000551FF2CF4695F1DF08C0161617061806FB
:1026D000991FF1CF86957105610508940895E894D6
:1026E000BB2766277727CB0197F908950E948913A6
:1026F0000C943C130E942E1338F00E94351320F0E6
:10270000952311F00C9425130C942B1311240C9485
:1027100070130E944D1370F3959FC1F3950F50E015
:10272000551F629FF001729FBB27F00DB11D639F83
:10273000AA27F00DB11DAA1F649F6627B00DA11D29
:10274000661F829F2227B00DA11D621F739FB00DCF
:10275000A11D621F839FA00D611D221F749F33273F
:10276000A00D611D231F849F600D211D822F762FD8
:102770006A2F11249F5750409AF0F1F088234AF0B5
:10278000EE0FFF1FBB1F661F771F881F9150504021
:10279000A9F79E3F510580F00C9425130C947013FB
:1027A0005F3FE4F3983ED4F3869577956795B795A8
:1027B000F795E7959F5FC1F7FE2B880F911D9695C2
:1027C000879597F9089597FB072E16F4009407D084
:1027D00077FD09D00E94FD1307FC05D03EF49095CB
:1027E00081959F4F0895709561957F4F0895EE0FE5
:1027F000FF1F0590F491E02D0994AA1BBB1B51E12A
:1028000007C0AA1FBB1FA617B70710F0A61BB70B60
:10281000881F991F5A95A9F780959095BC01CD0105
:102820000895FB01DC0102C005900D92415050401B
:10283000D8F70895BB274A3031F4992322F4BDE23A
:10284000909581959F4F0C942614BB27FB0155272B
:10285000AA27880F991FAA1FA41710F0A41B8395FD
:102860005051B9F7A05DAA3308F0A95DA193009774
:1028700079F7B111B1931192CB010C943F14DC01A3
:10288000FC01672F71917723E1F7329704C07C91A7
:102890006D9370836291AE17BF07C8F30895F894E3
:0228A000FFCF68
:1028A200B80C06019D0B0840000000806B015465C6
:1028B2006D703A20202020202020202020206D69C9
:1028C2006E0056656C3A20202020202020202020F7
:1028D20020204B6D2F6800446973743A2020202019
:0C28E200202020202020206D003A000063
:00000001FF
