:100000000C9434000C9446000C9446000C94B800F8
:100010000C9446000C9446000C9446000C94460048
:100020000C9446000C9446000C9446000C94670017
:100030000C9472000C9446000C9446000C944600FC
:100040000C9446000C9446000C9446000C94460018
:100050000C9446000C9446000C9446000C94460008
:100060000C9446000C94460011241FBECFEFD8E03C
:10007000DEBFCDBF21E0A0E0B1E001C01D92A23003
:10008000B207E1F70E94E2000C94F0000C9400002B
:100090008EE084B981EF85B9E1E8F0E08081896084
:1000A00080831092850010928400EFE6F0E080815A
:1000B000866080838FEF9FEF909389008093880004
:1000C0008FE892EC90938B0080938A0008951F92A2
:1000D0000F920FB60F921124299A0F900FBE0F9016
:1000E0001F9018951F920F920FB60F9211242F9305
:1000F0003F934F935F938F939F9329984091000173
:10010000509101012FE135E0429FC001439F900DC6
:10011000529F900D112481579D4390938B008093A3
:100120008A009F918F915F914F913F912F910F90F6
:100130000FBE0F901F9018958091000190910101C2
:10014000893091052CF0109201011092000106C037
:10015000992324F410920101109200018091000172
:1001600090910101019690930101809300010895FF
:100170001F920F920FB60F9211242F933F934F931C
:100180005F936F937F938F939F93AF93BF93EF93FF
:10019000FF931D9B06C095B188E0892785B90E9411
:1001A0009C00FF91EF91BF91AF919F918F917F91B3
:1001B0006F915F914F913F912F910F900FBE0F90D4
:1001C0001F9018950E944800E8E6F0E08081816069
:1001D0008083EBE6F0E08081806280837894FFCFBB
:0401E000F894FFCFC1
:00000001FF
