S02A00006A756E63616F5F6D61726F746174696F6E5F70776D5F636F6469676F5F6C696D706F2E73726563D6
S11300000C9434000C9451000C9451000C94510045
S11300100C94C2010C9451000C9451000C945100A6
S11300200C9451000C9451000C9451000C94A002B7
S11300300C94AB020C9451000C9451000C9451009C
S11300400C942B010C9451000C9402030C94510059
S11300500C9451000C9451000C9451000C945100D8
S11300600C9451000C94510011241FBECFEFD8E022
S1130070DEBFCDBF11E0A0E0B1E0E8E0FBE002C0EC
S113008005900D92A030B107D9F721E0A0E0B1E0CE
S113009001C01D92AF36B207E1F70E94D5020C945D
S11300A082050C9400009B0121503109121613069D
S11300B084F4FC01E60FF71FDC0180E090E04C9132
S11300C052915D9340830196215031098217930721
S11300D0B4F3089581309105A1F4809100019091C9
S11300E0010101968F3091052CF4909301018093C6
S11300F0000108958EE090E0909301018093000147
S11301000895892B81F48091000190910101019758
S11301102AF0909301018093000108951092010147
S113012010920001089510920101109200010895A7
S1130130CF92DF92EF92FF920F931F93CF93DF93AF
S11301406B018A01009799F0EB01E0E0F0E00F2EDB
S1130150FAE0EF2EF12CF02D3196B7010E9425051F
S1130160805D8993862F972F0097B1F702C0E0E056
S1130170F0E0E017F1075CF4EC0DFD1D9601200F93
S1130180311F80E38193E217F307E1F701C08F0188
S1130190B801C6010E945300E601C00FD11F1882A6
S11301A0C801DF91CF911F910F91FF90EF90DF90E5
S11301B0CF9008954F925F926F927F92AF92BF92C9
S11301C0CF92DF92EF92FF920F931F93CF93DF931F
S11301D02B013C018A0159010E94F4036B017C014B
S11301E040E050E0B801C6010E949800EC01AB2841
S11301F019F1F801E80FF91F8EE28083B601DD0CD6
S1130200880B990B0E942C049B01AC01C301B20121
S11302100E9415032196C00FD11F20E030E04AE769
S113022054E40E94B8040E94F403DC01CB0143E0CF
S113023050E0BE010E949800DF91CF911F910F9171
S1130240FF90EF90DF90CF90BF90AF907F906F9032
S11302505F904F9008951F920F920FB60F92112442
S11302602F933F934F935F936F937F938F939F93BA
S1130270AF93BF93EF93FF9380911A0190911B0169
S1130280019690931B0180931A01853F910509F013
S113029068C095B180E2892785B910921B0110923C
S11302A01A018091180190911901019690931901F6
S11302B080931801CC976CF08091160190911701EE
S11302C001969093170180931601109219011092D0
S11302D018014AE066E671E08091180190911901D5
S11302E00E944D054AE062E671E08091160190910A
S11302F017010E944D0520ED3FE049EC50E4609168
S113030006017091070180910801909109010E94F2
S1130310B80426E436EB43E75EE30E94B80426E61D
S113032036E646E650E40E94B80460935E0170939A
S11303305F01809360019093610121E030E04AE61F
S113034051E00E94DA0060910201709103018091F2
S113035004019091050120E030E046E551E00E945F
S1130360DA00FF91EF91BF91AF919F918F917F91AF
S11303706F915F914F913F912F910F900FBE0F900E
S11303801F9018951F920F920FB60F9211248F92FF
S11303909F92AF92BF92CF92DF92EF92FF922F93F0
S11303A03F934F935F936F937F938F939F93AF93F9
S11303B0BF93EF93FF93309B6CC0C0900E01D0901D
S11303C00F01E0901001F0901101C0921201D0923F
S11303D01301E0921401F092150160911A017091D9
S11303E01B01072E000C880B990B0E942C0425E896
S11303F031EB45E85BE30E94B8044B015C0160917A
S1130400180170911901072E000C880B990B0E949A
S11304102C049B01AC01C501B4010E941603609336
S11304200E0170930F018093100190931101A701A5
S113043096010E9415039B01AC0160930A0170931D
S11304400B0180930C0190930D0160E070E080E853
S11304509FE30E94820360930601709307018093D7
S11304600801909309012BE239E64FEB5FE36091B9
S113047002017091030180910401909105010E9491
S11304801603609302017093030180930401909317
S1130490050180911C0190911D01892B69F4329B07
S11304A005C081E090E00E946A0006C0319B0EC046
S11304B080E090E00E946A0080911C0190911D01EF
S11304C0019721F482E090E00E946A00FF91EF918D
S11304D0BF91AF919F918F917F916F915F914F9158
S11304E03F912F91FF90EF90DF90CF90BF90AF900E
S11304F09F908F900F900FBE0F901F901895E1E67C
S1130500F0E080E880831082089514B884B1866096
S113051084B989E080938100109285001092840050
S113052086E080936F008FEF9FEF90938900809314
S113053088008FE892EC90938B0080938A00089552
S11305401F920F920FB60F921124599A0F900FBE5B
S11305500F901F9018951F920F920FB60F921124AF
S11305602F933F934F935F938F939F935998409109
S11305700001509101012CEF38E0429FC001439FDC
S1130580900D529F900D1124805D9A4890938B009A
S113059080938A009F918F915F914F913F912F910A
S11305A00F900FBE0F901F9018950E947F020E941B
S11305B08502F89416BC84E085BD81E080936E00CA
S11305C08FEF8AB91BB817B818B8E8E6F0E0808155
S11305D082608083ECE6F0E080818F608083789491
S11305E0C1E0D0E0339B09C0D0931D01C0931C012E
S11305F082E090E00E946A00F5CF10921D011092F3
S11306001C01F0CF1F920F920FB60F9211248F93FB
S11306108091C60080936E0181E080931E018F91CA
S11306200F900FBE0F901F9018955058BB27AA2704
S11306300E942D030C947E040E94700438F00E94E2
S1130640770420F039F49F3F19F426F40C946D04D8
S11306500EF4E095E7FB0C946704E92F0E948F04E5
S113066058F3BA17620773078407950720F079F4E3
S1130670A6F50C94B1040EF4E0950B2EBA2FA02D20
S11306800B01B90190010C01CA01A0011124FF273B
S1130690591B99F0593F50F4503E68F11A16F04036
S11306A0A22F232F342F4427585FF3CF4695379535
S11306B02795A795F0405395C9F77EF41F16BA0BFA
S11306C0620B730B840BBAF09150A1F0FF0FBB1FA8
S11306D0661F771F881FC2F70EC0BA0F621F731FF1
S11306E0841F48F4879577956795B795F7959E3F4E
S11306F008F0B0CF9395880F08F09927EE0F9795DF
S1130700879508950E9496030C947E040E947704B2
S113071058F00E94700440F029F45F3F29F00C94D3
S1130720670451110C94B2040C946D040E948F045C
S113073068F39923B1F3552391F3951B550BBB270C
S1130740AA2762177307840738F09F5F5F4F220F51
S1130750331F441FAA1FA9F335D00E2E3AF0E0E848
S113076032D091505040E695001CCAF72BD0FE2F92
S113077029D0660F771F881FBB1F26173707480726
S1130780AB07B0E809F0BB0B802DBF01FF279358DE
S11307905F4F3AF09E3F510578F00C9467040C9437
S11307A0B2045F3FE4F3983ED4F38695779567955A
S11307B0B795F7959F5FC9F7880F911D9695879513
S11307C097F90895E1E0660F771F881FBB1F621732
S11307D073078407BA0720F0621B730B840BBA0BF0
S11307E0EE1F88F7E09508950E94FB036894B11109
S11307F00C94B20408950E94970488F09F5798F0CF
S1130800B92F9927B751B0F0E1F0660F771F881F11
S1130810991F1AF0BA95C9F714C0B13091F00E942B
S1130820B104B1E008950C94B104672F782F8827A0
S1130830B85F39F0B93FCCF3869577956795B39552
S1130840D9F73EF490958095709561957F4F8F4FC1
S11308509F4F0895E89409C097FB3EF490958095C6
S1130860709561957F4F8F4F9F4F9923A9F0F92F72
S113087096E9BB279395F695879577956795B795F0
S1130880F111F8CFFAF4BB0F11F460FF1BC06F5FD6
S11308907F4F8F4F9F4F16C0882311F096E911C0E8
S11308A0772321F09EE8872F762F05C0662371F009
S11308B096E8862F70E060E02AF09A95660F771F1D
S11308C0881FDAF7880F9695879597F9089597F911
S11308D09F6780E870E060E008959FEF80EC0895E2
S11308E000240A941616170618060906089500240B
S11308F00A9412161306140605060895092E039485
S1130900000C11F4882352F0BB0F40F4BF2B11F4F8
S113091060FF04C06F5F7F4F8F4F9F4F089557FD57
S11309209058440F551F59F05F3F71F04795880F59
S113093097FB991F61F09F3F79F0879508951216F0
S113094013061406551FF2CF4695F1DF08C016169C
S113095017061806991FF1CF86957105610508944D
S11309600895E894BB2766277727CB0197F9089564
S11309700E94CB040C947E040E94700438F00E9400
S1130980770420F0952311F00C9467040C946D0403
S113099011240C94B2040E948F0470F3959FC1F348
S11309A0950F50E0551F629FF001729FBB27F00D19
S11309B0B11D639FAA27F00DB11DAA1F649F66276E
S11309C0B00DA11D661F829F2227B00DA11D621FBD
S11309D0739FB00DA11D621F839FA00D611D221F77
S11309E0749F3327A00D611D231F849F600D211D5B
S11309F0822F762F6A2F11249F5750409AF0F1F0DE
S1130A0088234AF0EE0FFF1FBB1F661F771F881F46
S1130A1091505040A9F79E3F510580F00C94670413
S1130A200C94B2045F3FE4F3983ED4F38695779533
S1130A306795B795F795E7959F5FC1F7FE2B880FEC
S1130A40911D9695879597F9089597FB072E16F4AF
S1130A50009407D077FD09D00E94390507FC05D022
S1130A603EF4909581959F4F0895709561957F4FC1
S1130A700895AA1BBB1B51E107C0AA1FBB1FA617E1
S1130A80B70710F0A61BB70B881F991F5A95A9F733
S1130A9080959095BC01CD010895BB274A3031F46F
S1130AA0992322F4BDE2909581959F4F0C945905AA
S1130AB0BB27FB015527AA27880F991FAA1FA41734
S1130AC010F0A41B83955051B9F7A05DAA3308F028
S1130AD0A95DA193009779F7B111B1931192CB015C
S1130AE00C947205DC01FC01672F71917723E1F707
S1130AF0329704C07C916D9370836291AE17BF07E7
S10B0B00C8F30895F894FFCF37
S9030000FC
