:100000000C9478070C9495070C9495070C9495071D
:100010000C9495070C9495070C9495070C949507F0
:100020000C9495070C9495070C9495070C949507E0
:100030000C9495070C9495070C9495070C949507D0
:100040000C9495070C9495070C9495070C949507C0
:100050000C9495070C9495070C9495070C949507B0
:100060000C9495070C9495075F0985098709800909
:10007000940959095C094E0F560F700F600F700FED
:10008000700F700F700F700F700F700F700F700F78
:10009000700F700F700F700F700F700F700F700F68
:1000A000700F700F700F700F700F700F700F700F58
:1000B000700F480F700F700F700F700F700F700F70
:1000C000700F700F3C0F700F700F700F700F700F6C
:1000D000700F700F700F700F700F660F6B0F0000B6
:1000E000250028002B000000240027002A00FFD054
:1000F000FFE0FFCFFF64FFD1FF32380C060201FFA3
:1001000064FFD0FFFE004841FCF323000000002AFA
:100110003A0024FA2300141236200611070E001F9D
:100120000F801F9F800F9F00079E0003FC0081F837
:1001300010FEF7F0FFFFF0FFFFF0F9F9F001F80013
:1001400003FC00079E000F9F001F8F801F0F80077A
:100150000E001D1D74310A0000070000000700009A
:100160000007000000070000000700000007000073
:100170000007000000070000000700000007000063
:10018000000700000007000000070000FFFFFFF865
:10019000FFFFFFF8FFFFFFF8000700000007000067
:1001A0000007000000070000000700000007000033
:1001B0000007000000070000000700000007000023
:1001C0000007000000070000000700000B0C180FDC
:1001D00002FA0FE00FC01FC01F801F803F003F00CA
:1001E0003E007E007C007C00F8000D060C11020928
:1001F000FFF8FFF8FFF8FFF8FFF8FFF80706060F13
:100200000500FEFEFEFEFEFE1127751502FD000F25
:1002100080000F00001F00001F00001E00003E00B5
:10022000003E00003E00007C00007C00007C0000DE
:10023000780000F80000F80000F00001F00001F084
:100240000001F00003E00003E00003E00003C00051
:1002500007C00007C0000780000F80000F80000F5C
:1002600080001F00001F00001F00003E00003E0035
:10027000003E00003C00007C00007C00007C000090
:10028000F8000019238C1C020101FF800007FFE029
:10029000000FFFF0001FFFF8001FFFFC003F81FC74
:1002A000003F00FE007F007E007E007E007E003F5B
:1002B000007E003F00FE003F00FE003F00FE003FCA
:1002C00000FE003F80FE003F80FE003F80FE003FBA
:1002D00080FE003F80FE003F80FE003F80FE003F2A
:1002E00000FE003F00FE003F007E003F007E003F1A
:1002F000007E007F007F007E003F00FE003F81FC0B
:10030000001FFFFC001FFFF8000FFFF00007FFE0D9
:100310000001FF80000F23461C050000FE01FE07C0
:10032000FE0FFE3FFEFFFEFFFEFEFEFCFEF0FEC0E7
:10033000FE00FE00FE00FE00FE00FE00FE00FE00CD
:10034000FE00FE00FE00FE00FE00FE00FE00FE00BD
:10035000FE00FE00FE00FE00FE00FE00FE00FE00AD
:10036000FE19238C1C020100FFE00003FFF80007C8
:10037000FFFC000FFFFE001FFFFF003FC0FF003F1C
:10038000803F803F003F807F003F8000003F800033
:10039000003F8000003F8000007F0000007F0000E1
:1003A00000FF000001FE000003FC000007FC00004D
:1003B0000FF800001FF000003FE000007FC00001C8
:1003C000FF000003FE000007FC00000FF000003FEC
:1003D000E000007F800000FF000000FFFFFF80FFC3
:1003E000FFFF80FFFFFF80FFFFFF80FFFFFF80FF19
:1003F000FFFF801823691C020103FF800FFFE01F2D
:10040000FFF03FFFF87FFFFC7F03FCFE01FCFE00D6
:10041000FCFE00FE0000FE0000FE0001FC0001FCEE
:10042000000FF800FFF000FFC000FF8000FFE000B9
:10043000FFF80003FC0000FE0000FE00007E00004C
:100440007F00007FFE007FFE007FFE00FEFF00FEBB
:100450007F01FC7FFFFC3FFFF81FFFF00FFFE00371
:10046000FF801A238C1C01000007FC00000FFC0019
:10047000001FFC00001FFC00003FFC00003FFC00D0
:10048000007FFC0000FDFC0000FDFC0001F9FC0009
:1004900001F9FC0003F1FC0007F1FC0007E1FC009E
:1004A0000FC1FC000FC1FC001F81FC003F81FC005C
:1004B0003F01FC007E01FC00FE01FC00FC01FC0091
:1004C000FFFFFFC0FFFFFFC0FFFFFFC0FFFFFFC038
:1004D000FFFFFFC0FFFFFFC00001FC000001FC00A8
:1004E0000001FC000001FC000001FC000001FC0018
:1004F0000001FC001823691C02007FFFFC7FFFFC49
:100500007FFFFC7FFFFC7FFFFC7FFFFC7F00007F05
:1005100000007F00007F00007F00007F00007F1F41
:10052000C07F7FF07FFFF87FFFFC7FFFFC7FC1FE75
:100530007F00FE7F007F7E007F00007F00007F0045
:10054000007F00007F00007FFE007FFE00FEFE00B7
:10055000FEFF01FC7FFFFC7FFFF83FFFF00FFFC0B5
:1005600007FF8019238C1C020100FFC00003FFF06D
:100570000007FFF8000FFFFC001FFFFE001FE0FE5A
:10058000003FC07F003F807F007F0000007F0000B1
:10059000007F0000007E000000FE1FC000FE7FF014
:1005A00000FEFFF800FEFFFC00FFFFFE00FFE1FE83
:1005B00000FFC0FF00FF807F00FF003F00FF003F03
:1005C00080FF003F80FF003F80FF003F807F003FB3
:1005D000007F003F007F807F007F807F003FC0FE64
:1005E000001FFFFC001FFFFC000FFFF80007FFE0EB
:1005F0000001FF80001823691C0200FFFFFFFFFFBE
:10060000FFFFFFFFFFFFFFFFFFFFFFFFFF00007F78
:1006100000007F0000FE0000FE0001FE0001FC0063
:1006200003FC0003F80007F80007F0000FF0000FCC
:10063000F0001FE0001FE0003FC0003FC0003F800F
:10064000007F80007F0000FF0000FF0001FE00012E
:10065000FE0003FC0003FC0007F80007F8000FF899
:10066000000FF00019238C1C020103FFC0000FFFD4
:10067000F0001FFFFC003FFFFE003FFFFE007FC1B8
:10068000FF007F80FF007F007F007F007F007F00F2
:100690007F007F007F007F007F003F80FE003FC122
:1006A000FC000FFFF80007FFE00001FFC0000FFF94
:1006B000F0001FFFF8003FC1FE007F80FE007F00BA
:1006C0007F00FE003F00FE003F00FE003F80FE0076
:1006D0003F80FE003F80FF007F80FF007F007F8023
:1006E000FF007FFFFF003FFFFE003FFFFC000FFF0A
:1006F000F80003FFE00019238C1C020101FFC00079
:1007000007FFE0000FFFF8001FFFFC003FFFFC00A9
:100710007F81FE007F00FE007E00FF00FE007F0064
:10072000FE007F00FE007F80FE007F80FE007F8055
:10073000FE007F80FE00FF807F00FF807F83FF80C0
:100740003FFFFF803FFFBF801FFFBF800FFF3F8045
:1007500001F83F8000003F0000007F0000007F00A4
:1007600000007F007F00FE007F00FE007F01FE0092
:100770003F83FC001FFFFC001FFFF8000FFFF0008D
:1007800007FFE00001FF8000071818100700FEFEB9
:10079000FEFEFEFE00000000000000000000000061
:1007A000FEFEFEFEFEFE01060A00FE07013602689E
:1007B00020FFFE08FE07FE0A006022176780808087
:1007C00080800080163363A0A0A00257675050F8C5
:1007D00050F850500257672070A0702870200257C0
:1007E0006748A8502050A89002576740A0A040A892
:1007F0009068261363808080123767204080808055
:1008000040201237678040202020408003556588B3
:1008100050F850880355652020F82020113363607C
:100820004080055161F811336340E040025767088A
:100830000810204080800257672050888888502008
:100840000257672060A0202020F8025767708808B0
:10085000304080F8025767F8081030088870025757
:100860006710305090F81010025767F880B0C80831
:100870008870025767304080B0C88870025767F8A8
:100880000810102040400257677088887088887070
:100890000257677088986808106011376740E04019
:1008A0000040E04011376740E04000604080124760
:1008B0006710204080402010045363F800F812476E
:1008C00067804020102040800257677088102020E9
:1008D0000020025767708898A8B080700257672080
:1008E000508888F88888025767F04848704848F070
:1008F00002576770888080808870025767F0484888
:10090000484848F0025767F88080F08080F8025726
:1009100067F88080F08080800257677088808098B8
:100920008870025767888888F8888888123767E057
:100930004040404040E0025767381010101090606F
:100940000257678890A0C0A0908802576780808077
:10095000808080F80257678888D8A88888880257DE
:10096000678888C8A89888880257677088888888A8
:100970008870025767F08888F0808080015868701E
:1009800088888888A87008025767F08888F0A09047
:100990008802576770888070088870025767F8204F
:1009A0002020202020025767888888888888700245
:1009B000576788888850505020025767888888A8D1
:1009C000A8D88802576788885020508888025767BF
:1009D00088885020202020025767F8081020408087
:1009E000F8123767E08080808080E002576780805F
:1009F0004020100808123767E02020202020E00661
:100A00005363205088015161F828226280400255CA
:100A10006570087888780257678080B0C888C8B049
:100A20000255657088808870025767080868988842
:100A300098680255657088F88070025767304840A2
:100A4000F0404040005767788888780888700257DF
:100A5000678080B0C88888881237674000C04040EF
:100A600040E010496910003010101090906002575B
:100A70006780808890E09088123767C0404040408F
:100A800040E0025565D0A8A8A888025565B0C8887E
:100A900088880255657088888870005767B0C88854
:100AA000C8B0808000576768988898680808025521
:100AB00065B0C880808002556570807008F002576C
:100AC000674040F040404830025565888888986803
:100AD00002556588885050200255658888A8A8501E
:100AE00002556588502050880057678888986808A4
:100AF0008870025565F8102040F812476730402092
:100B0000C02040302217678080808080808012471C
:100B100067C02040304020C006536348A890FFFFC4
:100B2000FFFFFFFFFFFFFFFFFFFFFFFFFFFFFFFFD5
:100B3000FFFFFFFFFFFFFFFFFFFFFFFFFFFFFF0ABA
:100B400000602217678000808080808001576720C6
:100B500078A0A0A07820025767304840E04048B015
:100B6000025565887050708801586888885020F850
:100B700020202022176780808000808080015868B4
:100B80007080E09048380870193161A00257677092
:100B900088A8C8A888701346667090B05000F0020C
:100BA00065652448904824144262F010154161F0B4
:100BB0000257677088E8C8C88870095161F8163311
:100BC0006340A0400256662020F82020F8154565B5
:100BD00060902040F0154565E0106010E02822622A
:100BE0004080015666888888C8B08002576778E8D8
:100BF000E868282828251161802022624080153568
:100C00006540C04040E01346666090906000F0028E
:100C10006565904824489001696940C04040E40CF3
:100C2000143C0401696940C04040E81404081C01F8
:100C30005969C0204020C81828780802576720004A
:100C400020204088700258684020708888F8888882
:100C50000258681020708888F888880258682050E8
:100C6000708888F8888802586848B0708888F88842
:100C7000880258685000708888F888880258682070
:100C800050708888F888880267673C50909CF09084
:100C90009C00596970888080808870204002586864
:100CA00040F88080F08080F802586810F88080F06A
:100CB0008080F802586820F88080F08080F8025820
:100CC0006850F88080F08080F81238688040E040FA
:100CD000404040E01238682040E040404040E01290
:100CE000386840A0E040404040E0123868A000E092
:100CF00040404040E0025767F04848E84848F0026A
:100D00005868285088C8A898888802586840207079
:100D10008888888870025868102070888888887051
:100D20000258682050708888888870025868285057
:100D30007088888888700258685000708888888811
:100D4000700255658850205088025767709898A89F
:100D5000C8C87002586840208888888888700258FF
:100D60006810208888888888700258682050008819
:100D7000888888700258685000888888888870023F
:100D80005868102088885020202002576780F088FB
:100D9000F0808080025767708890A09088B00258D9
:100DA0006840200070087888780258681020007029
:100DB000087888780258682050007008788878028F
:100DC000586828500070087888780257675000707B
:100DD000087888780258682050207008788878024F
:100DE000656578147C907C005767708880887020D7
:100DF000400258684020007088F8807002586810DF
:100E000020007088F880700258682050007088F8C0
:100E1000807002576750007088F8807012386880C0
:100E20004000C0404040E0123868408000C0404070
:100E300040E012386840A000C0404040E0123767F0
:100E4000A000C0404040E0025767C03070888888EA
:100E500070025868285000B0C888888802586840D6
:100E60002000708888887002586810200070888878
:100E7000887002586820500070888888700258680E
:100E800028500070888888700257675000708888E2
:100E900088700355652000F800200255657898A8F1
:100EA000C8F002586840200088888898680258680E
:100EB0001020008888889868025868205000888828
:100EC0008898680257675000888888986800596930
:100ED00010208888986808887000586880F0888892
:100EE00088F0808000596950008888986808887068
:100EF00011241FBECFEFD8E0DEBFCDBF11E0A0E0D0
:100F0000B1E0E4E1FFE102C005900D92A232B10729
:100F1000D9F721E0A2E2B1E001C01D92A93DB207DC
:100F2000E1F70E94F6070C94880F0C940000CF9212
:100F3000EF920F93CF9364E082E00E94E909082FBB
:100F400065E082E00E94E909C82F63E082E00E9428
:100F5000E909CC24CA94EE24EA942C2F482F64E0AB
:100F600071E082EA91E00E94F90DCF910F91EF902C
:100F7000CF900895E1E6F0E080E880831082089544
:100F800066EA77E082EA91E00E94EC0C22E131E02F
:100F90004FE060E082EA91E00E94600C27E131E0DE
:100FA00048E264E682EA91E00E94600C65E071E04C
:100FB00082EA91E00E94EC0CE0E0F1E081818F5F39
:100FC00081832CE131E048E268E282EA91E00E940C
:100FD000600C20E031E048E268E282EA91E00E94A1
:100FE000600C85E090E00E944A0A08950E94BA07CA
:100FF0000E94970782EA91E00E941C0E0E94C0079F
:1010000082EA91E00E94220E8111F8CF84E690E0FE
:101010000E944A0AEFCF0F93FC010150040F84A9EC
:1010200096A9941738F0081768F481E0041740F087
:1010300080E006C00817D0F081E0041708F080E0D7
:101040008823C9F02150260F83A995A9961738F057
:10105000281770F481E0261770F080E00CC0281784
:1010600048F081E0261738F080E005C080E003C03A
:1010700081E001C080E00F910895DB011496ED91AD
:10108000FC91159720E030E061E009950895DB01BF
:101090001496ED91FC91159720E030E063E00995FE
:1010A0000895DB011496ED91FC91159720E030E056
:1010B00040E064E009950895DB011496ED91FC9100
:1010C000159720E030E041E064E009950895DB01E8
:1010D0001496ED91FC91159720E030E062E00995BF
:1010E0000895DB011496ED91FC91159720E030E016
:1010F00065E009950895DB011496ED91FC91159733
:1011000066E009950895AF92BF92CF92DF92EF9279
:10111000FF920F931F93CF93DF936C017B018A01A2
:10112000D0E0B12CAA24A394F801C491D1110BC032
:10113000CF3F09F44AC04C2FB701C6010E94710885
:10114000811148C04BC0CF3F51F44FEFB701C601EA
:101150000E947108882309F441C0DB2D3BC0CE3FBB
:10116000E1F1C03FA0F5C03E40F04C2F4F70B701F9
:10117000C6010E946708DB2D2DC0C03D40F04C2FFA
:101180004F70B701C6010E944708DB2D23C0C03C49
:10119000A0F0B701C6010E945108C295C07FCE5F82
:1011A000D0E0CE010E944A0AB701C6010E945C0845
:1011B000CE010E944A0ADB2D0DC0CC2354F08C2FA7
:1011C00090E00E944A0ADB2D05C0DA2D03C0DB2D1A
:1011D00001C0DB2D0F5F1F4FA7CF81E0DF91CF91C3
:1011E0001F910F91FF90EF90DF90CF90BF90AF9045
:1011F00008950F931F93CF93DF938C01D62FC8E0F0
:101200004D2F407865E0C8010E94400ADD0F41E0A3
:1012100064E0C8010E94400A0E94540A40E064E071
:10122000C8010E94400A0E94540AC15049F7DF9148
:10123000CF911F910F9108950F931F93CF938C011E
:10124000C42F611104C068EF0E94F90805C0613025
:1012500019F46AEF0E94F9086C2F607FC8010E94A0
:10126000F9086C2F6295607FC8010E94F9080E94FE
:10127000590A0E94590A0E94590A0E94590ACF919C
:101280001F910F910895CF92DF92EF92FF920F93EB
:101290001F93CF93DF93EC018901862F90E0FC012F
:1012A0003197E730F10508F073C0EC5CFF4F0C9408
:1012B000790F411140C06CC0411153C069C064E056
:1012C000CE010E94370A65E0CE010E94370A62E033
:1012D000CE010E94370A60E0CE010E94370A40E04A
:1012E00064E0CE010E94400A40E065E0CE010E9429
:1012F000400A40E062E0CE010E94400A1EA248C0BF
:1013000060E0CE010E94400A43C04EA341C041119B
:1013100005C062E0CE010E94400A3AC041E062E0AE
:10132000CE010E94400A34C06EA1CE010E941C0969
:1013300082E08EA32DC06901415050E04F5F5F4FA6
:10134000040F151F6894FF24F1F8F60141916F0115
:101350006EA1CE010E941C09FEA20C151D05A9F765
:1013600017C04150E42EF12CFFEFEF1AFF0AE20EF6
:10137000F31E6894DD24D1F8F80144916EA1CE01EA
:101380000E941C09DEA20F5F1F4FE016F106A1F7B5
:1013900081E0DF91CF911F910F91FF90EF90DF904F
:1013A000CF900895CF93DF9300D0CDB7DEB770E034
:1013B000660F771F680F791F42E050E0CE0101965B
:1013C0000E947F0F89819A810F900F90DF91CF91BA
:1013D0000895880F880F880F860F0895CF93C82F20
:1013E000682F66956695669586EE90E00E94D20914
:1013F000FC014081C77021E030E002C0220F331FA2
:10140000CA95E2F7242B2083CF910895CF93DF93E1
:10141000C82FD62F682F6695669566958EED90E05D
:101420000E94D209D11111C05FB7F894FC0140812C
:10143000C77021E030E002C0220F331FCA95E2F7E7
:101440002095242320835FBF0FC04FB7F894FC0181
:101450005081C77021E030E002C0220F331FCA95CF
:10146000E2F7252B20834FBFDF91CF910895860FA0
:10147000911DFC0183A18F3F11F00E94EE09089598
:10148000860F911DFC0183A18F3F19F0642F0E94EC
:10149000060A0895009739F02EE93FE0F9013197E7
:1014A000F1F70197D9F7089584E090E00197F1F7FB
:1014B000089588E290E00197F1F708959F92AF9226
:1014C000BF92CF92DF92EF92FF920F931F93CF9331
:1014D000DF938C01EB01E42E59018AE0481721F0DB
:1014E000E5E14E1761F059C043E0C8010E943D0894
:1014F0004EEE50E0BE01C8010E9483084EC0CA8073
:10150000DB8040E0C8010E94670841E0BE01C801DD
:101510000E944708F601F280C680D780689499241B
:1015200093F89F0C40E0BE01C8010E9467084EE39B
:10153000BE01C8010E947108FFE1FF1560F04F2D48
:101540004068BE01C8010E94710840E8BE01C801A0
:101550000E9471080CC040EE4F0D4068BE01C801EA
:101560000E94710848E8BE01C8010E94710841E06C
:10157000BE01C8010E946708960140E1BE01C80192
:101580000E947B0880E1C80ED11CF3949F10CACF43
:1015900040E0BE01C8010E94470895014E2DBE01E2
:1015A000C8010E942A0FDF91CF911F910F91FF90E8
:1015B000EF90DF90CF90BF90AF909F900895FC0187
:1015C000E60FF11D849190E0982F88273196E491E1
:1015D0008E0F911D0895FC01849108950E94EB0ADD
:1015E000882321F0823011F083E0089586E0089589
:1015F00080E0089566E00E94DF0A089568E00E9496
:10160000DF0A08950A96FC01849108950B96FC0167
:1016100084910895AF92BF92CF92DF92EF92FF92A2
:101620000F931F93CF93DF937C01B62EDC011496AA
:10163000CD91DC911597CE010E94EB0A182FF7018E
:10164000848195810E94EE0AD82E113029F40F2E44
:10165000FFE0AF2EF02D02C0AA24AA94D701149661
:101660008D919C9115970E94020B182FF701848190
:1016700095810E94060B082FD70114968D919C919D
:1016800015970E94FE0AB0E6BB1530F4009721F0D2
:10169000C80FD91F11E60FC0F701848195810E9400
:1016A000FA0AF0E4FB1530F4009721F0C80FD91FB7
:1016B00011E401C061960B1590F4D70150961C926D
:1016C000509753961C92539754961C925497519648
:1016D0001C92519752961C9280E090E076C00117C0
:1016E00008F46BC02D2D30E06E01FE0194919F3FF8
:1016F00011F421965EC01B1153C0D70114968D9131
:101700009C9115970E94EB0A882311F0823001F515
:10171000F601C490D7015396CC925397FE013196AF
:10172000E4915496EC935497FE013396E4915096CD
:10173000EC935097FE013496E4915196EC935197B7
:10174000FE013596E4915296EC938C2F9D2F3DC06F
:10175000FE018491982F9F709250D70152969C93CE
:101760005297C82EC694C694C694C6945196CC92ED
:101770005197FE013196E4918E2F8F7054968C9381
:101780005497E295EF705396EC935397FE0132967F
:10179000E491E295EF705096EC938C2F9D2F15C03D
:1017A000FE013296E491EA21C9018E0F911DC80F06
:1017B000D91F101711F01F5F97CFF701108A138AF6
:1017C000148A118A128A80E090E0DF91CF911F91F4
:1017D0000F91FF90EF90DF90CF90BF90AF90089562
:1017E0006F927F928F929F92AF92BF92CF92DF9231
:1017F000EF92FF920F931F93CF93DF935C01162F0D
:10180000742E622F0E940A0B6C01892B09F448C0C8
:10181000F501848195810E94EE0A982EF501D38905
:10182000C4896188610E8289781AF72CFC1A0C2F02
:101830002D2F4F2D662DC5010E940B08811103C06D
:10184000F50180892EC0D95FED2EE694E694E694EA
:10185000CC2319F1E601C90DD11D88248A948E0C80
:10186000912CFFEF8F1A9F0A11C0FE01049120E016
:101870004F2D612FC5010E94320E2196185FCC15A5
:10188000DD0599F7E601F394F71439F0EE20D9F36A
:101890006E01C80CD91C162DE8CFF501808901C056
:1018A00080E0DF91CF911F910F91FF90EF90DF903B
:1018B000CF90BF90AF909F908F907F906F90089542
:1018C000CF92DF92FF920F931F93CF93DF936C0120
:1018D000C62FF42E8901DC015596ED91FC915697A7
:1018E0000995F80EF8012081222381F00F5F1F4F28
:1018F000D0E04F2D6C2FC6010E94F00BC80FD80FFF
:10190000D8012D918D012111F4CF01C0D0E08D2F90
:10191000DF91CF911F910F91FF90DF90CF900895AD
:10192000DC0114968D919C911597009709F44DC098
:1019300057962C91579721110DC0FC013596E491D3
:101940005896EC935897FC013C96E4915996EC9389
:1019500059971BC0213069F4FC013F96E4915896D9
:10196000EC935897FC017096E4915996EC93599733
:101970000CC0FC013D96E4915896EC935897FC01FD
:101980003E96E4915996EC93599758968C915897B6
:10199000082E000C990B59962C915997821B91098E
:1019A00027FD93955A962C915A97203461F0829F87
:1019B000C00111240024880F991F001C880F991F53
:1019C000001C892F902D5B968C93089528EF3AE0A8
:1019D000FC01368B258B0895CF93DF93FC01248186
:1019E00035812617370749F0EC01758364830E941F
:1019F000900C88EF9AE09E8B8D8BDF91CF910895AC
:101A00001F93CF93DF93EC011D821C821F821E82E5
:101A1000198681E0888782E28A871F861E86FE01FA
:101A2000B3969E012F5C3F4F8FEF8193E217F30730
:101A3000E1F711E018A3CE010E94E60C1F8B188E6F
:101A4000198E80E48A8F1B8E88E79FE09AAB89AB62
:101A5000DF91CF911F910895DB01ED91FC910995E4
:101A600008950F931F93CF93DF93EC018B01E9A9A6
:101A7000FAA982E0099520E030E04AE0B801CE0101
:101A80000E942C0D182FE9A9FAA983E00995E9A96C
:101A9000FAA980E00995812FDF91CF911F910F91D5
:101AA00008950F931F93CF93DF93EC018B01E9A966
:101AB000FAA982E00995E9A9FAA981E0099520E04F
:101AC00030E044E1B801CE010E942C0D9E012D5C56
:101AD0003F4F47E1B801CE010E942C0DE9A9FAA9B8
:101AE00080E00995DF91CF911F910F910895EF92BA
:101AF000FF921F93CF93DF93EC017B01E9A9FAA931
:101B000082E00995E9A9FAA981E0099520E030E091
:101B100045E1B701CE010E942C0D182F882341F01A
:101B20009E012D5C3F4F47E1B701CE010E942C0D75
:101B3000E9A9FAA980E00995812FDF91CF911F9142
:101B4000FF90EF900895CF93DF931F92CDB7DEB74C
:101B50009E012F5F3F4F46E40E942C0D89810F901C
:101B6000DF91CF910895CF93DF931F92CDB7DEB76A
:101B70009E012F5F3F4F47E40E942C0D89810F90FB
:101B8000DF91CF91089520E030E048E40E942C0DD1
:101B90000895CF93DF93EC016A817B810E94A30DAE
:101BA00088836A817B81CE010E94B30D89836A811B
:101BB0007B81CE010E94C30D8B879E012D5C3F4F20
:101BC0006A817B8147E1CE010E942C0DDF91CF918C
:101BD0000895CF93DF93EC016A817B810E94310DE0
:101BE000882321F0CE010E94C90D81E0DF91CF91C1
:101BF0000895AF92BF92CF92EF92FF920F931F93EF
:101C0000CF93DF93EC015B01F42E122F0E94000DA5
:101C1000BB82AA82FFA218A70DA3ECA2CBA2CE0181
:101C20000E94E90DDF91CF911F910F91FF90EF90EE
:101C3000CF90BF90AF900895FC01628173810E94A4
:101C4000510D0895CF93DF93EC01EE85FF8530971A
:101C500009F009956A817B81CE010E94770DDF91A1
:101C6000CF9108950F93FC0182819381648F458FFA
:101C7000278F068F9F01245E3F4F4BE3BC01CF01AE
:101C80000E942C0D0F910895FC01128280818150D9
:101C9000838314820895FC0120818281820F8283D4
:101CA0009181891760F484818F5F84838381820F9F
:101CB000891710F08FEF890F838381E0089580E00A
:101CC0000895DC011696ED91FC91179715968C916D
:101CD0009F01280F311DC9011192E817F907E1F79B
:101CE000089531E0FC012381261708F430E021E05B
:101CF000FC018281481708F420E091E0461708F0C3
:101D000090E0892F832B2823832F8923822B08950A
:101D1000DC01FB01108212968C911297818315963B
:101D20008C9115978150828313968C9183830895AB
:101D3000FB0131812381213019F0233021F006C0CD
:101D400048E0430F04C0432F385001C0432F632F96
:101D50000E94710E08950F931F93CF93DF93EC01B0
:101D60000E811F819D81969596959695862F8770F9
:101D7000A0E8B0E002C0B595A7958A95E2F78A8100
:101D8000481B499F402D1124669566956695E62F60
:101D9000F0E0E40FF11DE00FF11F222321F080811C
:101DA000A82BA08304C0A0958081A823A083DF91E5
:101DB000CF911F910F910895FB014181FC01228178
:101DC000421770F02381241758F0FB013081FC0189
:101DD0002581321728F4FB012481632F0E94AB0E6A
:101DE0000895DF92EF92FF920F931F93CF93DF93AB
:101DF0007C01EB011A818B81813049F028F082301F
:101E000051F0833059F00EC0D12C01E00DC0DD241B
:101E1000D39400E009C0D12C0FEF06C0DD24DA9482
:101E200000E002C0D12C00E0112324F4BE01C70160
:101E30000E94DC0E8881800F888389818D0D8983C3
:101E4000110F91F7DF91CF911F910F91FF90EF90BC
:101E5000DF9008950F931F93CF93DF93FB01C2810F
:101E6000D38150E0FA017497E433F105C8F5890194
:101E7000E55CFF4F0C94790FB901CE010E94980EDA
:101E8000882381F1B801CE010E94F10E81E02BC0C0
:101E9000B901CE010E94DC0E81E025C0CE010E9476
:101EA000610ECE010E94440E81E01DC0CE010E9451
:101EB0004B0E8823C1F0CE010E94610E81E013C059
:101EC000B901CE010E94880E81E00DC08D81F9011B
:101ED000808381E008C08981F901808381E003C0AB
:101EE00081E001C081E0DF91CF911F910F910895B2
:101EF0000895EE0FFF1F0590F491E02D0994FB016A
:101F0000DC0102C005900D9241505040D8F7089571
:041F1000F894FFCF73
:101F1400313000005E0A0A014309084000000080D5
:101F2400220156656C3A004B6D2F6800202020205A
:021F34000000AB
:00000001FF
